:100000000C9475000C949D000C949D000C949D0024
:100010000C949D000C949D000C949D000C949D00EC
:100020000C949D000C949D000C949D000C949D00DC
:100030000C949D000C949D000C949D000C949D00CC
:100040000C9468020C949D000C94D8020C94B2029B
:100050000C949D000C949D000C949D000C949D00AC
:100060000C940A030C949D00084AD73B3BCE016ECA
:1000700084BCBFFDC12F3D6C74319ABD56833DDAFF
:100080003D00C77F11BED9E4BB4C3E916BAAAABE0E
:10009000000000803F0000000000240027002A002C
:1000A00000000000250028002B00040404040404C0
:1000B0000404020202020202030303030303010217
:1000C00004081020408001020408102001020408E6
:1000D00010200000000800020100000304070000D7
:1000E000000000000000B90DB30D11241FBECFEFBA
:1000F000D8E0DEBFCDBF11E0A0E0B1E0EEE0F6E277
:1001000002C005900D92AC34B107D9F723E0ACE4FE
:10011000B1E001C01D92AE34B207E1F710E0C4E7D0
:10012000D0E004C02197FE010E94860EC337D1079C
:10013000C9F70E94730A0C94FA120C940000CF9233
:10014000DF92EF92FF920F931F93CF93DF936C0197
:100150007A018B01C0E0D0E0CE15DF0589F0D8012F
:100160006D918D01D601ED91FC910190F081E02D12
:10017000C6010995892B11F47E0102C02196ECCFAE
:10018000C701DF91CF911F910F91FF90EF90DF900A
:10019000CF900895FC01538D448D252F30E0842F9E
:1001A00090E0821B930B541710F0CF96089501979F
:1001B0000895FC01918D828D981761F0828DDF0189
:1001C000A80FB11D5D968C91928D9F5F9F73928F4A
:1001D00090E008958FEF9FEF0895FC01918D828D3F
:1001E000981731F0828DE80FF11D858D90E008950C
:1001F0008FEF9FEF0895FC01918D228D892F90E064
:10020000805C9F4F821B91098F739927089581E22B
:1002100092E00E94FB0021E0892B09F420E0822F6C
:100220000895FC01848DDF01A80FB11DA35ABF4FB3
:100230002C91848D90E001968F739927848FA689E5
:10024000B7892C93A089B1898C9180648C93938D0C
:10025000848D981306C00288F389E02D80818F7DFC
:1002600080830895EF92FF920F931F93CF93DF93B4
:10027000EC0181E0888F9B8D8C8D981305C0E889F7
:10028000F989808185FD24C0F62E0B8D10E00F5F6B
:100290001F4F0F731127E02E8C8DE8120CC00FB684
:1002A00007FCFACFE889F989808185FFF5CFCE0177
:1002B0000E941101F1CF8B8DFE01E80FF11DE35A71
:1002C000FF4FF0820B8FEA89FB898081806207C033
:1002D000EE89FF896083E889F98980818064808361
:1002E00081E090E0DF91CF911F910F91FF90EF900F
:1002F0000895CF93DF93EC01888D8823C9F0EA89B4
:10030000FB89808185FD05C0A889B9898C9186FD0E
:100310000FC00FB607FCF5CF808185FFF2CFA8890B
:10032000B9898C9185FFEDCFCE010E941101E7CFF5
:10033000DF91CF91089580E090E0892B29F00E9411
:10034000070181110C940000089585ED8093BC0095
:100350008091BC0084FDFCCF1092FA010895409179
:100360008E01262F30E0240F311D21323105DCF4BF
:100370002091FA012430C9F4FC0180E090E0861756
:1003800058F430918E012191DC01A459BE4FA30F86
:10039000B11D2C930196F3CF80918E01680F60936D
:1003A0008E0180E0089581E0089582E00895089527
:1003B000E091FC018091FB01E81730F4F0E0E3509C
:1003C000FE4F808190E008958FEF9FEF0895909108
:1003D000FC018091FB01981750F4E92FF0E0E35005
:1003E000FE4F208130E09F5F9093FC0102C02FEF11
:1003F0003FEFC90108958091FB0190E02091FC013D
:10040000821B91090895CF92DF92EF92FF920F9392
:100410001F93CF93DF937C01262F972F8A01809122
:100420002002882391F0C62FD72F6E01C40ED51E4F
:10043000CC15DD0571F06991D701ED91FC9101902A
:10044000F081E02DC7010995F3CF642F822F0E9420
:10045000AF01C801DF91CF911F910F91FF90EF90F5
:10046000DF90CF900895CF93DF931F92CDB7DEB783
:100470006983209120022223D1F020911D02203295
:1004800040F021E030E0FC013383228380E090E003
:1004900015C080911E02E82FF0E0E45BFE4F9981C9
:1004A00090838F5F80931E0280931D0205C061E0E0
:1004B000CE0101960E94AF0181E090E00F90DF91A4
:1004C000CF910895089580E090E008950E94F5127C
:1004D0001F920F920FB60F9211242F933F938F9379
:1004E0009F93AF93BF938091D0019091D101A09140
:1004F000D201B091D3013091CF0126E0230F2D37E7
:1005000020F40296A11DB11D05C029E8230F039612
:10051000A11DB11D2093CF018093D0019093D101F3
:10052000A093D201B093D3018091CB019091CC01E3
:10053000A091CD01B091CE010196A11DB11D809376
:10054000CB019093CC01A093CD01B093CE01BF918C
:10055000AF919F918F913F912F910F900FBE0F9070
:100560001F9018951F920F920FB60F9211242F9380
:100570003F934F935F936F937F938F939F93AF932B
:10058000BF93EF93FF9381E292E00E941101FF91EC
:10059000EF91BF91AF919F918F917F916F915F91FB
:1005A0004F913F912F910F900FBE0F901F90189574
:1005B0001F920F920FB60F9211242F938F939F9338
:1005C000EF93FF93E0913102F09132028081E0914C
:1005D0003702F091380282FD12C0908180913A0278
:1005E0008F5F8F7320913B02821751F0E0913A02A6
:1005F000F0E0EF5DFD4F958F80933A0201C080815E
:10060000FF91EF919F918F912F910F900FBE0F90BF
:100610001F9018951F920F920FB60F9211242F93CF
:100620003F934F935F936F937F938F939F93AF937A
:10063000BF93EF93FF938091B900887F803609F4D0
:100640009CC068F5883209F45BC090F4803109F4ED
:1006500054C038F4882309F4F6C0883009F44DC03A
:10066000F6C0883109F44CC0803209F45DC0EFC097
:10067000803409F468C048F4803309F455C08833E5
:1006800009F0E5C08093F801D8C0803509F44FC067
:10069000883509F45DC0883409F0D9C0D6C08839DE
:1006A00009F4C7C0A8F4883709F467C038F488365D
:1006B00009F463C0803709F460C0C9C0883809F400
:1006C000B8C0803909F45FC0803809F0C0C05BC091
:1006D000803B09F486C038F4803A09F466C0883A51
:1006E00009F47FC0B4C0803C09F4A7C0883C09F479
:1006F000A4C0883B09F48AC0AAC08091F50110C04B
:100700009091F7018091F601981770F5E091F7014B
:1007100081E08E0F8093F701F0E0EC52FE4F808174
:100720008093BB0085EC86C08093F8018EC0E09179
:10073000F70181E08E0F8093F7018091BB00F0E01C
:10074000EC52FE4F80839091F7018091F6016EC0CC
:10075000E091F70181E08E0F8093F7018091BB005B
:10076000F0E0EC52FE4F80838091F90181116DC061
:1007700081E08093F40184EA61C083E08093FA0110
:100780001092B201CFCF8091B201803208F051C0F7
:10079000E091B20181E08E0F8093B2018091BB00A5
:1007A000F0E0EE56FE4F8083BDCF85EC8093BC0019
:1007B0001092FA018091B201803230F4E091B201DE
:1007C000F0E0EE56FE4F10826091B20170E0E091D1
:1007D0009001F091910182E991E009951092B201A6
:1007E00036C084E08093FA0110928F0110928E013E
:1007F000E0918C01F0918D01099580918E0181111C
:1008000005C081E080938E0110926C01E0918F0110
:1008100081E08E0F80938F01F0E0E459FE4F8081DC
:100820008093BB0090918F0180918E01981708F4FE
:1008300079CF85E88093BC000AC085EC8093BC002A
:100840001092FA0104C01092F8010E94A501FF91D4
:10085000EF91BF91AF919F918F917F916F915F9138
:100860004F913F912F910F900FBE0F901F901895B1
:1008700020911D0290911F02213208F049C0809101
:10088000FA018111FCCF32E03093FA016093F90153
:100890003FEF3093F8011092F7012093F601ACE49A
:1008A000B1E044ED51E0FA013E2F341B321718F449
:1008B0003D913193F9CF1092F5012091F501990FF7
:1008C000922B9093F5019091F401913061F4109284
:1008D000F4019091F5019093BB009091BC0093FDC1
:1008E000F8CF95EC01C095EE9093BC009091FA0181
:1008F0009230E1F39091F8019F3F79F08091F801F7
:10090000803241F08091F801803331F084E005C0FD
:1009100081E003C082E001C083E010921E021092C9
:100920001D02109220020895E0914703F0914803C0
:10093000908180914903892B8083A0914503B091D8
:1009400046032091490380913E0390913F03AC01FF
:10095000440F551F840F951F609140035091410330
:100960004C91322F30953423242B4FB7F894E62F37
:10097000F52F8E0F9F1FE817F90761F0519168E07E
:100980002C9357FF3C93550F00C008F43C936A9595
:10099000B9F7F1CF4FBF089520913E0330913F0347
:1009A0008217930740F5FC01EE0FFF1F8E0F9F1F6C
:1009B00020914203A0914003B0914103A80FB91FB9
:1009C000A20FB11D5C9320914303A0914003B0910D
:1009D0004103A80FB91FA20FB11D4C9320914403EE
:1009E000E0914003F0914103E80FF91FE20FF11D80
:1009F000608380E0089581E00895009769F0FC012C
:100A000001900020E9F73197AF01481B590BBC0159
:100A100081E292E00C949F0080E090E00895E091E4
:100A20002102F09122020190F081E02D682F81E2F5
:100A300092E009948F929F92AF92BF920F931F936F
:100A4000CF93DF93CDB7DEB7A1970FB6F894DEBF93
:100A50000FBECDBF19A2423008F44AE08E010F5DEF
:100A60001F4F842E912CA12CB12CA50194010E9422
:100A7000500EE62FB901CA0101501109EA3014F4F1
:100A8000E05D01C0E95CD801EC93232B242B252BDE
:100A900061F7C8010E94FD04A1960FB6F894DEBF6D
:100AA0000FBECDBFDF91CF911F910F91BF90AF903F
:100AB0009F908F9008954F925F926F927F928F9246
:100AC0009F92AF92BF92CF92DF92EF92FF92CF931D
:100AD000DF936B017C01B42E9B01AC010E94AE112F
:100AE000882319F080E491E01AC026013701E894C8
:100AF00077F82FEF3FEF4FE75FE7C301B2010E94A6
:100B0000AE11811110C02FEF3FEF4FE75FE7C30138
:100B1000B2010E946B0F181634F484E491E00E9435
:100B2000FD04EC0185C02FEF3FEF4FE75FE4C70105
:100B3000B6010E94EA1018161CF488E491E0EFCF89
:100B40002FEF3FEF4FE75FECC701B6010E946B0F3D
:100B500087FDF3CF20E030E0A901C701B6010E9474
:100B60006B0F87FF09C08DE20E940F05EC01F7FAB9
:100B7000F094F7F8F09402C0C0E0D0E0A12C60E05F
:100B800070E080E09FE3AB1440F420E030E040E20E
:100B900051E40E94700FA394F6CF9B01AC01C701F2
:100BA000B6010E948D0E2B013C010E94E20F6B01E9
:100BB0007C010E9411109B01AC01C301B2010E9493
:100BC0008C0E2B013C014AE0C701B6010E941A05B8
:100BD000C80FD91FBB2029F08EE20E940F05C80F55
:100BE000D91FFB2CFF2021F120E030E040E251E44E
:100BF000C301B2010E94F7102B013C010E94E20FD9
:100C00004B01A12CB12C4AE0C501B4010E941A0588
:100C1000C80FD91FC501B4010E9411109B01AC017E
:100C2000C301B2010E948C0E2B013C01FA94DACF71
:100C30008DE391E00E94FD048C0F9D1FDF91CF9109
:100C4000FF90EF90DF90CF90BF90AF909F908F90EC
:100C50007F906F905F904F9008951F93CF93DF9395
:100C6000162F91E09093200298E690931F02109225
:100C70001E0210921D02C2EDD2E0A881B981ED9151
:100C8000FC9111970190F081E02D682FCD0109951D
:100C900088819981DC01ED91FC910190F081E02D3A
:100CA000612F099561E088819981DF91CF911F9132
:100CB0000C94380490E0FC01EE52FF4F2491FC01AB
:100CC000E254FF4F3491FC01E655FF4FE491EE23CF
:100CD000B1F1222339F1233091F038F42130A9F019
:100CE000223001F584B58F7D12C0273091F0283075
:100CF000A1F02430B9F4809180008F7D03C08091F1
:100D000080008F77809380000DC084B58F7784BD7D
:100D100009C08091B0008F7703C08091B0008F7DB3
:100D20008093B000F0E0EE0FFF1FE056FF4FA5915B
:100D3000B4918FB7F894EC913E2B3C938FBF0895FC
:100D40002FB7F8946091D0017091D1018091D201B8
:100D50009091D3012FBF08952F923F924F925F92AF
:100D60006F927F928F929F92AF92BF92CF92DF92BB
:100D7000EF92FF92CF93DF9300D000D0CDB7DEB7D4
:100D800081E08093200288E680931F0210921E0269
:100D900010921D028091D2029091D302DC01ED915C
:100DA000FC910190F081E02D6BE3099560E080916A
:100DB000D2029091D3020E9438048091FA018111ED
:100DC000FCCF81E08093FA018093F9019FEF90932B
:100DD000F8011092F7019DE09093F6018093F501E0
:100DE0008091F501806D8093F5018091F40181304F
:100DF00061F41092F4018091F5018093BB00809121
:100E0000BC0083FDF8CF85EC01C085EE8093BC006B
:100E10008091FA018130E1F38091F7018E3018F46E
:100E20008091F70101C08EE0A4EDB1E02DEF31E03B
:100E3000F9019E2F921B981718F49D919193F9CF69
:100E40001092FC018093FB018091D2029091D30219
:100E5000DC01ED91FC910284F385E02D0995F82EDB
:100E60008091D2029091D302DC01ED91FC91028439
:100E7000F385E02D099520E030E03F2D822B932B68
:100E80009093D5028093D4028091D2029091D302A4
:100E9000DC01ED91FC910284F385E02D0995F82E9B
:100EA0008091D2029091D302DC01ED91FC910284F9
:100EB000F385E02D099520E030E03F2D822B932B28
:100EC0009093D7028093D6028091D2029091D30260
:100ED000DC01ED91FC910284F385E02D0995F82E5B
:100EE0008091D2029091D302DC01ED91FC910284B9
:100EF000F385E02D099520E030E03F2D822B932BE8
:100F00009093D9028093D8028091D2029091D3021B
:100F1000DC01ED91FC910284F385E02D0995F82E1A
:100F20008091D2029091D302DC01ED91FC91028478
:100F3000F385E02D099520E030E03F2D822B932BA7
:100F40009093DB028093DA028091D2029091D302D7
:100F5000DC01ED91FC910284F385E02D0995F82EDA
:100F60008091D2029091D302DC01ED91FC91028438
:100F7000F385E02D099520E030E03F2D822B932B67
:100F80009093DD028093DC028091D2029091D30293
:100F9000DC01ED91FC910284F385E02D0995F82E9A
:100FA0008091D2029091D302DC01ED91FC910284F8
:100FB000F385E02D099520E030E03F2D822B932B27
:100FC0009093DF028093DE028091D2029091D3024F
:100FD000DC01ED91FC910284F385E02D0995F82E5A
:100FE0008091D2029091D302DC01ED91FC910284B8
:100FF000F385E02D099560E070E07F2D3B01682AC4
:10100000792A7092E1026092E0026091DA027091B6
:10101000DB02072E000C880B990B0E94131020E0B6
:1010200030EF41E456E40E948D0E20E030E04AEAC1
:1010300053E40E94700F6093EE027093EF0280936E
:10104000F0029093F1026091D4027091D502072EC4
:10105000000C880B990B0E94131020E030E040E850
:1010600058E30E94F7104B015C016093F202709309
:10107000F3028093F4029093F5026091D60270918E
:10108000D702072E000C880B990B0E94131020E04A
:1010900030E040E858E30E94F7106B017C01609358
:1010A000F6027093F7028093F8029093F902609130
:1010B000D8027091D902072E000C880B990B0E9460
:1010C000131020E030E040E858E30E94F7101B01C5
:1010D0002C016093FA027093FB028093FC029093C0
:1010E000FD0220E030E0A901C501B4010E94EA1030
:1010F000A501940118160CF05058C201B1010E94CC
:101100008D0E9B01AC01C701B6010E940C0F20E0BF
:1011100030E044EB53E40E94F71020E030E040E080
:101120005FE30E94F7102BED3FE049E450E40E949A
:10113000700F6093160370931703809318039093B6
:10114000190320E030E0A901C701B6010E94EA10AE
:10115000181624F0F7FAF094F7F8F094A701960126
:10116000C201B1010E948D0E9B01AC01C501B40109
:101170000E940C0F20E030E044EB53E40E94F71093
:1011800020E030E040E05FEB0E94F7102BED3FE005
:1011900049E450E40E94700F60931A0370931B039C
:1011A00080931C0390931D036091DC027091DD021B
:1011B000072E000C880B990B0E94131020E030E0E2
:1011C00043E852E40E94700F6093FE027093FF02A6
:1011D00080930003909301036091DE027091DF021F
:1011E000072E000C880B990B0E94131020E030E0B2
:1011F00043E852E40E94700F60930203709303036C
:101200008093040390930503B301770C880B990B2B
:101210000E94131020E030E043E852E40E94700F77
:101220006093060370930703809308039093090368
:101230000E94A006C0903203D0903303E0903403A4
:10124000F09035039B01AC012C193D094E095F0953
:1012500069017A0120932E0330932F0340933003CA
:10126000509331032091E2023091E3024091E40275
:101270005091E5026091FE027091FF02809100039F
:10128000909101030E948C0E2B013C016093FE02A1
:101290007093FF0280930003909301032091E60274
:1012A0003091E7024091E8025091E9026091020317
:1012B0007091030380910403909105030E948C0EAA
:1012C0004B015C016093020370930303809304035A
:1012D000909305032091EA023091EB024091EC02D9
:1012E0005091ED026091060370910703809108030D
:1012F000909109030E948C0E69837A838B839C836F
:101300006093060370930703809308039093090387
:10131000C701B6010E9413102FE632E143E85AE3F9
:101320000E94F7106B017C019B01AC01C301B2016B
:101330000E94F7109B01AC0160910A0370910B03AE
:1013400080910C0390910D030E948D0E60930A030F
:1013500070930B0380930C0390930D03A7019601E8
:10136000C501B4010E94F7109B01AC0160910E030E
:1013700070910F0380911003909111030E948D0EC4
:1013800060930E0370930F038093100390931103E7
:10139000A701960169817A818B819C810E94F71057
:1013A0009B01AC01609112037091130380911403AF
:1013B000909115030E948D0E609312037093130396
:1013C00080931403909315030E94A0066093320348
:1013D00070933303809334039093350380903A03E2
:1013E00090903B03A0903C03B0903D03C090360327
:1013F000D0903703E0903803F090390320910A032E
:1014000030910B0340910C0350910D03C501B401C1
:101410000E94F7102B013C01209116033091170315
:101420004091180350911903C701B6010E94F710AB
:101430009B01AC01C301B2010E948D0E6093220397
:1014400070932303809324039093250320910E032C
:1014500030910F034091100350911103C501B40165
:101460000E94F7104B015C0120911A0330911B037D
:1014700040911C0350911D03C701B6010E94F71053
:101480009B01AC01C501B4010E948D0E609326033F
:10149000709327038093280390932903809112036C
:1014A00090911303A0911403B091150380932A0324
:1014B00090932B03A0932C03B0932D030F900F90C8
:1014C0000F900F90DF91CF91FF90EF90DF90CF9032
:1014D000BF90AF909F908F907F906F905F904F9054
:1014E0003F902F900895789484B5826084BD84B530
:1014F000816084BD85B5826085BD85B5816085BD0F
:1015000080916E00816080936E00109281008091C6
:10151000810082608093810080918100816080934E
:101520008100809180008160809380008091B10073
:1015300084608093B1008091B00081608093B0009E
:1015400080917A00846080937A0080917A00826032
:1015500080937A0080917A008E7F80937A008091C8
:101560007A00806880937A001092C100E091310285
:10157000F091320282E08083E0912D02F0912E0200
:101580001082E0912F02F091300287E68083109262
:101590003902E0913502F091360286E08083E091D5
:1015A0003302F0913402808180618083E0913302C4
:1015B000F0913402808188608083E0913302F09161
:1015C0003402808180688083E0913302F09134029C
:1015D00080818F7D8083E7ECF0E0E491E093490324
:1015E00083EB90E0FC012491E22FF0E0EE0FFF1F6F
:1015F000E056FF4F259134913093460320934503E5
:10160000FC018491E82FF0E0EE0FFF1FEA56FF4F38
:101610008591949190934803809347031092FC0125
:101620001092FB0110921E0210921D021092FA01FC
:1016300081E08093F9011092F40182E10E945A0640
:1016400083E10E945A068091B9008E7F8093B90091
:101650008091B9008D7F8093B90080E28093B800BB
:1016600085E48093BC0060E089E10E942D0660E083
:101670008AE10E942D0668E08BE10E942D0660E061
:101680008CE10E942D0661E08BE60E942D060E94EF
:10169000AC068091160390911703A0911803B091A6
:1016A000190380930A0390930B03A0930C03B09348
:1016B0000D0380911A0390911B03A0911C03B0911C
:1016C0001D0380930E0390930F03A0931003B09318
:1016D00011038BE291E00E94FD048DE391E00E94F2
:1016E000FD04609136037091370380913803909127
:1016F000390342E050E00E945B0560913A0370912B
:101700003B0380913C0390913D0342E050E00E94F6
:101710005B058FEF8093B4018093B3018093B50193
:101720001092B7011092B6011092B8011092BA014E
:101730001092B901C091B901D091BA01CB31D10554
:101740007CF44091B3015091B4016091B501CE0198
:101750000E94CC042196D093BA01C093B901EACF7C
:101760000E949404C4EFD1E022242394312C04E697
:1017700010E00E94A0066093C7017093C801809397
:10178000C9019093CA01C090C202D090C302E090F8
:10179000C402F090C502FAE0CF0ED11CE11CF11C8E
:1017A0002091C5013091C6014901330FAA08BB0839
:1017B000C80CD91CEA1CFB1CC616D706E806F9069D
:1017C0000CF067C01092C6011092C5010E94A006DD
:1017D0006093C2027093C3028093C4029093C502C7
:1017E0000E94AC068091C3019091C4010196909330
:1017F000C4018093C3016091F2027091F302809161
:10180000F4029091F5028090F6029090F702A09079
:10181000F802B090F902C090FA02D090FB02E0907A
:10182000FC02F090FD029B01AC010E94F7102B011D
:101830003C01A5019401C501B4010E94F7109B0170
:10184000AC01C301B2010E948D0E4B015C01A701E6
:101850009601C701B6010E94F7109B01AC01C501BA
:10186000B4010E948D0E0E946A119B01AC0160912F
:10187000BF017091C0018091C1019091C2010E948D
:101880008D0E6093BF017093C0018093C10190934E
:10189000C2018091C3019091C40104970CF4A4C0CB
:1018A000D093C601C093C50120E030E040E85EE37C
:1018B0006091BF017091C0018091C1019091C201FE
:1018C0000E94F7106B017C016093BF017093C0010F
:1018D0008093C1019093C2011092C4011092C30180
:1018E00028E431EE4AEB5FE30E94EA1087FF05C06F
:1018F0001092BE011092BD010EC02CE53FE842ECF3
:101900005FE3C701B6010E946B0F87FFF1CF3092F2
:10191000BE012092BD012CE53FE842EC5FE3C70128
:10192000B6010E94EA1087FD10C021E73DE34AECB2
:101930005FE3C701B6010E946B0F87FF06C082E01C
:1019400090E09093BE018093BD0121E73DE34AEC16
:101950005FE3C701B6010E94EA1087FD10C025E8C9
:101960003BEE41ED5FE3C701B6010E946B0F87FFBD
:1019700006C084E090E09093BE018093BD0125E80D
:101980003BEE41ED5FE3C701B6010E94EA1087FD1F
:1019900006C0E8E0F0E0F093BE01E093BD0144E052
:1019A00050E0C701B6010E945B05C090BD01D09018
:1019B000BE010D2C000CEE08FF08F7FE0CC08DE2F6
:1019C0000E940F0566277727CB016C197D098E09C8
:1019D0009F094AE003C04AE0C701B6010E941A0508
:1019E0008DE391E00E94FD046091BD017091BE0104
:1019F000161617060CF085C0CE010E943C0ECB01D6
:101A0000770FAA0BBB0B4091BE025091BF026091B1
:101A1000C0027091C102840F951FA61FB71F40918D
:101A2000BB015091BC01052E000C660B770B840F97
:101A3000951FA61FB71F4091C7015091C801609123
:101A4000C9017091CA0184179507A607B7070CF062
:101A500087C080910001882331F11092000110931A
:101A6000BC010093BB011092BA011092B901E09041
:101A7000B901F090BA012BE1E216F1048CF4409127
:101A8000B6015091B7016091B801C7010E94CC0422
:101A9000FFEFEF1AFF0AF092BA01E092B901E7CF27
:101AA0000E9494045DC081E0809300010E94A00622
:101AB0006093BE027093BF028093C0029093C102F4
:101AC0001092BC011092BB011092BA011092B901A0
:101AD000E090B901F090BA01EBE1EE16F10404F7E1
:101AE0004091B3015091B4016091B501C7010E94CA
:101AF000CC049FEFE91AF90AF092BA01E092B90119
:101B0000E7CFF1E0F09300010E94A0066093BE02CF
:101B10007093BF028093C0029093C1021092BC01E7
:101B20001092BB011092BA011092B901E090B90174
:101B3000F090BA018BE1E816F1040CF0B1CF4091BE
:101B4000B3015091B4016091B501C7010E94CC046A
:101B50002FEFE21AF20AF092BA01E092B901E6CF51
:101B60000E949B0106CE80914003909141030C940A
:101B70005D120F931F93CF93DF93E1E2F2E01382A4
:101B8000128288EE93E0A0E0B0E084839583A68380
:101B9000B7832BE031E03183208325EC30E03587BB
:101BA000248724EC30E03787268720EC30E0318B27
:101BB000208B21EC30E0338B228B22EC30E0358B14
:101BC000248B26EC30E0378B268B118E128E138EF1
:101BD000148E06EC12E0F80113821282848395833E
:101BE000A683B7838DE191E091838083CEE3D3E038
:101BF0008BE190E09983888381E590E00E94C81191
:101C00009B838A831D8281E08C8382E08E83109384
:101C1000D3020093D2028AE097EDA3EABCE380935B
:101C2000360390933703A0933803B093390388E4C5
:101C300091EEAAE7BFE380933A0390933B03A0930E
:101C40003C03B0933D030E94A0066093C2027093D0
:101C5000C3028093C4029093C5020E94A0066093C1
:101C6000BE027093BF028093C0029093C102DF91C5
:101C7000CF911F910F91089597FB072E16F40094B2
:101C800007D077FD09D00E94720E07FC05D03EF404
:101C9000909581959F4F0895709561957F4F089518
:101CA000A1E21A2EAA1BBB1BFD010DC0AA1FBB1F60
:101CB000EE1FFF1FA217B307E407F50720F0A21BD2
:101CC000B30BE40BF50B661F771F881F991F1A943F
:101CD00069F760957095809590959B01AC01BD0169
:101CE000CF010895AA1BBB1B51E107C0AA1FBB1F50
:101CF000A617B70710F0A61BB70B881F991F5A9598
:101D0000A9F780959095BC01CD010895EE0FFF1FB6
:101D10000590F491E02D09945058BB27AA270E9402
:101D2000A40E0C94B0100E94A21038F00E94A910CA
:101D300020F039F49F3F19F426F40C9478100EF437
:101D4000E095E7FB0C947210E92F0E94C11058F344
:101D5000BA17620773078407950720F079F4A6F590
:101D60000C94E3100EF4E0950B2EBA2FA02D0B016E
:101D7000B90190010C01CA01A0011124FF27591BD0
:101D800099F0593F50F4503E68F11A16F040A22FD6
:101D9000232F342F4427585FF3CF46953795279547
:101DA000A795F0405395C9F77EF41F16BA0B620B46
:101DB000730B840BBAF09150A1F0FF0FBB1F661F8D
:101DC000771F881FC2F70EC0BA0F621F731F841FD0
:101DD00048F4879577956795B795F7959E3F08F0F6
:101DE000B0CF9395880F08F09927EE0F97958795B8
:101DF00008950E94A21060F080E891E009F49EEF3F
:101E00000E94A91028F040E851E071F45EEF0CC088
:101E10000C9478100C94E310E92FE0780E94C11024
:101E200040F3092E052AB1F326173707480759074B
:101E300038F00E2E07F8E02569F0E025E0640AC0CE
:101E4000EF6307F8009407FADB01B9019D01DC019B
:101E5000CA01AD01EF930E94870F0E94B0100E944B
:101E60003C0F5F91552339F02BED3FE049E450FDE5
:101E700049EC0C948D0E0895DF93DD27B92FBF77C1
:101E800040E85FE31616170648075B0718F4D92FDA
:101E90000E94EF109F938F937F936F930E94AA11DC
:101EA000E8E6F0E00E947B100E94B0102F913F9175
:101EB0004F915F910E940A11DD2351F09058A2EAE0
:101EC0002AED3FE049EC5FE3D0785D270E94A40E45
:101ED000DF910C94B0100E944E1008F481E0089538
:101EE0000E94840F0C94B0100E94A91058F00E9418
:101EF000A21040F029F45F3F29F00C9472105111A8
:101F00000C94E4100C9478100E94C11068F399238B
:101F1000B1F3552391F3951B550BBB27AA276217E5
:101F20007307840738F09F5F5F4F220F331F441FF2
:101F3000AA1FA9F335D00E2E3AF0E0E832D0915026
:101F40005040E695001CCAF72BD0FE2F29D0660F13
:101F5000771F881FBB1F261737074807AB07B0E856
:101F600009F0BB0B802DBF01FF2793585F4F3AF05C
:101F70009E3F510578F00C9472100C94E4105F3F72
:101F8000E4F3983ED4F3869577956795B795F795E2
:101F90009F5FC9F7880F911D9695879597F90895CA
:101FA000E1E0660F771F881FBB1F62177307840766
:101FB000BA0720F0621B730B840BBA0BEE1F88F775
:101FC000E09508950E94C91088F09F5798F0B92FA6
:101FD0009927B751B0F0E1F0660F771F881F991F5E
:101FE0001AF0BA95C9F714C0B13091F00E94E3100D
:101FF000B1E008950C94E310672F782F8827B85F1D
:1020000039F0B93FCCF3869577956795B395D9F7B5
:102010003EF490958095709561957F4F8F4F9F4FBF
:102020000895E89409C097FB3EF4909580957095CB
:1020300061957F4F8F4F9F4F9923A9F0F92F96E914
:10204000BB279395F695879577956795B795F11189
:10205000F8CFFAF4BB0F11F460FF1BC06F5F7F4F26
:102060008F4F9F4F16C0882311F096E911C0772338
:1020700021F09EE8872F762F05C0662371F096E841
:10208000862F70E060E02AF09A95660F771F881F10
:10209000DAF7880F9695879597F90895990F0008B4
:1020A000550FAA0BE0E8FEEF16161706E807F9072A
:1020B000C0F012161306E407F50798F0621B730BC5
:1020C000840B950B39F40A2661F0232B242B252B46
:1020D00021F408950A2609F4A140A6958FEF811DE9
:1020E000811D089597F99F6780E870E060E008958A
:1020F0009FEF80EC0895DF93CF931F930F93FF9290
:10210000EF92DF927B018C01689406C0DA2EEF011A
:102110000E940A11FE01E894A591259135914591FF
:102120005591A6F3EF010E94A40EFE019701A801AC
:10213000DA9469F7DF90EF90FF900F911F91CF91A4
:10214000DF91089500240A9416161706180609064A
:10215000089500240A94121613061406050608951D
:10216000092E0394000C11F4882352F0BB0F40F4A5
:10217000BF2B11F460FF04C06F5F7F4F8F4F9F4FE5
:10218000089557FD9058440F551F59F05F3F71F067
:102190004795880F97FB991F61F09F3F79F08795CE
:1021A0000895121613061406551FF2CF4695F1DF57
:1021B00008C0161617061806991FF1CF86957105E7
:1021C000610508940895E894BB2766277727CB011B
:1021D00097F908950E944E1008F48FEF08959B011F
:1021E000AC0160E070E080E89FE30C94700F0E9407
:1021F0000A110C94B0100E94A21038F00E94A9108D
:1022000020F0952311F00C9472100C947810112486
:102210000C94E4100E94C11070F3959FC1F3950FC8
:1022200050E0551F629FF001729FBB27F00DB11D5A
:10223000639FAA27F00DB11DAA1F649F6627B00DEA
:10224000A11D661F829F2227B00DA11D621F739FD3
:10225000B00DA11D621F839FA00D611D221F749FE1
:102260003327A00D611D231F849F600D211D822F28
:10227000762F6A2F11249F5750409AF0F1F088234F
:102280004AF0EE0FFF1FBB1F661F771F881F91507C
:102290005040A9F79E3F510580F00C9472100C94A9
:1022A000E4105F3FE4F3983ED4F386957795679505
:1022B000B795F795E7959F5FC1F7FE2B880F911DA6
:1022C0009695879597F9089519F416F40C9478105B
:1022D0000C94B3110E94C910B8F39923C9F3B6F353
:1022E0009F57550B87FF0E94C1110024A0E640EACA
:1022F000900180585695979528F4805C660F771F5B
:10230000881F20F026173707480730F4621B730B2D
:10231000840B202931294A2BA69517940794202550
:1023200031254A2758F7660F771F881F20F0261798
:102330003707480730F4620B730B840B200D311DF7
:10234000411DA09581F7B901842F9158880F96956A
:10235000879508959B01AC010C94F7100E944E10D4
:10236000880B990B08959F3F31F0915020F4879589
:1023700077956795B795880F911D9695879597F9ED
:10238000089591505040660F771F881FD2F7089527
:10239000CF93DF938230910510F482E090E0E091DA
:1023A0004C03F0914D0320E030E0C0E0D0E03097E6
:1023B00011F14081518148175907C0F0481759075A
:1023C00061F482819381209719F09B838A832BC0CB
:1023D00090934D0380934C0326C02115310519F0CD
:1023E0004217530718F49A01BE01DF01EF01028082
:1023F000F381E02DDCCF2115310509F1281B390BC4
:102400002430310590F412968D919C9113976115AB
:10241000710521F0FB019383828304C090934D03E7
:1024200080934C03FD01329644C0FD01E20FF31F7F
:1024300081939193225031092D933C933AC020917E
:102440004A0330914B03232B41F420910301309137
:10245000040130934B0320934A03209101013091F2
:1024600002012115310541F42DB73EB74091050118
:1024700050910601241B350BE0914A03F0914B0368
:10248000E217F307A0F42E1B3F0B2817390778F04B
:10249000AC014E5F5F4F2417350748F04E0F5F1FAA
:1024A00050934B0340934A038193919302C0E0E021
:1024B000F0E0CF01DF91CF9108950F931F93CF9359
:1024C000DF93009709F48CC0FC01329713821282CB
:1024D00000914C0310914D030115110581F42081E9
:1024E0003181820F931F20914A0330914B032817AB
:1024F000390779F5F0934B03E0934A0371C0D80193
:1025000040E050E0AE17BF0750F412962D913C9179
:102510001397AD012115310509F1D901F3CF9D01C3
:10252000DA013383228360817181860F971F8217BE
:10253000930769F4EC0128813981260F371F2E5F3C
:102540003F4F318320838A819B8193838283452BF4
:1025500029F4F0934D03E0934C0342C01396FC938F
:10256000EE931297ED01499159919E01240F351F69
:10257000E217F30771F480819181840F951F029611
:1025800011969C938E938281938113969C938E9344
:102590001297E0E0F0E0D80112968D919C9113978C
:1025A000009719F0F8018C01F6CF8D919C9198015C
:1025B0002E5F3F4F820F931F20914A0330914B03B0
:1025C0002817390769F4309729F410924D031092B7
:1025D0004C0302C01382128210934B0300934A03F0
:1025E000DF91CF911F910F91089581E090E0F894D1
:1025F0000C94FA1210E0C4E7D0E004C0FE010E947F
:0E260000860E2196C537D107C9F7F894FFCF93
:10260E000100004E0380000000000032019F00CA4E
:10261E00007901FB00D900ED000000000033020339
:10262E00026302D701FB01E701D8013D3D3D3D3D6F
:10263E003D3D3D3D3D3D3D3D3D3D3D3D000D0A0099
:0C264E006E616E00696E66006F766600BB
:00000001FF
